{
  "_format": "hh-sol-artifact-1",
  "contractName": "Crowdfunding",
  "sourceName": "contracts/Crowdfunding.sol",
  "abi": [
    {
      "inputs": [
        {
          "internalType": "uint256",
          "name": "_goal",
          "type": "uint256"
        },
        {
          "internalType": "uint256",
          "name": "_duration",
          "type": "uint256"
        }
      ],
      "stateMutability": "nonpayable",
      "type": "constructor"
    },
    {
      "anonymous": false,
      "inputs": [
        {
          "indexed": true,
          "internalType": "address",
          "name": "owner",
          "type": "address"
        },
        {
          "indexed": false,
          "internalType": "uint256",
          "name": "totalAmount",
          "type": "uint256"
        },
        {
          "indexed": false,
          "internalType": "bool",
          "name": "goalMet",
          "type": "bool"
        }
      ],
      "name": "CampaignEnded",
      "type": "event"
    },
    {
      "anonymous": false,
      "inputs": [
        {
          "indexed": true,
          "internalType": "address",
          "name": "owner",
          "type": "address"
        },
        {
          "indexed": false,
          "internalType": "uint256",
          "name": "duration",
          "type": "uint256"
        }
      ],
      "name": "DeadlineSet",
      "type": "event"
    },
    {
      "anonymous": false,
      "inputs": [
        {
          "indexed": false,
          "internalType": "uint256",
          "name": "amount",
          "type": "uint256"
        }
      ],
      "name": "GoalSet",
      "type": "event"
    },
    {
      "anonymous": false,
      "inputs": [
        {
          "indexed": true,
          "internalType": "address",
          "name": "donor",
          "type": "address"
        }
      ],
      "name": "NewDonor",
      "type": "event"
    },
    {
      "anonymous": false,
      "inputs": [
        {
          "indexed": true,
          "internalType": "address",
          "name": "previousOwner",
          "type": "address"
        },
        {
          "indexed": true,
          "internalType": "address",
          "name": "newOwner",
          "type": "address"
        }
      ],
      "name": "OwnershipTransferred",
      "type": "event"
    },
    {
      "anonymous": false,
      "inputs": [
        {
          "indexed": true,
          "internalType": "address",
          "name": "donor",
          "type": "address"
        },
        {
          "indexed": false,
          "internalType": "uint256",
          "name": "amount",
          "type": "uint256"
        }
      ],
      "name": "PledgeReceived",
      "type": "event"
    },
    {
      "anonymous": false,
      "inputs": [
        {
          "indexed": true,
          "internalType": "address",
          "name": "donor",
          "type": "address"
        },
        {
          "indexed": false,
          "internalType": "uint256",
          "name": "amount",
          "type": "uint256"
        }
      ],
      "name": "RefundProcessed",
      "type": "event"
    },
    {
      "inputs": [],
      "name": "claimRefund",
      "outputs": [],
      "stateMutability": "nonpayable",
      "type": "function"
    },
    {
      "inputs": [],
      "name": "deadline",
      "outputs": [
        {
          "internalType": "uint256",
          "name": "",
          "type": "uint256"
        }
      ],
      "stateMutability": "view",
      "type": "function"
    },
    {
      "inputs": [
        {
          "internalType": "uint256",
          "name": "",
          "type": "uint256"
        }
      ],
      "name": "donorAddresses",
      "outputs": [
        {
          "internalType": "address",
          "name": "",
          "type": "address"
        }
      ],
      "stateMutability": "view",
      "type": "function"
    },
    {
      "inputs": [
        {
          "internalType": "address",
          "name": "",
          "type": "address"
        }
      ],
      "name": "donors",
      "outputs": [
        {
          "internalType": "uint256",
          "name": "",
          "type": "uint256"
        }
      ],
      "stateMutability": "view",
      "type": "function"
    },
    {
      "inputs": [],
      "name": "endCampaign",
      "outputs": [],
      "stateMutability": "nonpayable",
      "type": "function"
    },
    {
      "inputs": [],
      "name": "getCampaignDetails",
      "outputs": [
        {
          "internalType": "address",
          "name": "",
          "type": "address"
        },
        {
          "internalType": "uint256",
          "name": "",
          "type": "uint256"
        },
        {
          "internalType": "uint256",
          "name": "",
          "type": "uint256"
        },
        {
          "internalType": "uint256",
          "name": "",
          "type": "uint256"
        },
        {
          "internalType": "uint256",
          "name": "",
          "type": "uint256"
        },
        {
          "internalType": "uint256",
          "name": "",
          "type": "uint256"
        }
      ],
      "stateMutability": "view",
      "type": "function"
    },
    {
      "inputs": [
        {
          "internalType": "address",
          "name": "_donor",
          "type": "address"
        }
      ],
      "name": "getDonationAmount",
      "outputs": [
        {
          "internalType": "uint256",
          "name": "",
          "type": "uint256"
        }
      ],
      "stateMutability": "view",
      "type": "function"
    },
    {
      "inputs": [],
      "name": "getDonorsArray",
      "outputs": [
        {
          "internalType": "address[]",
          "name": "",
          "type": "address[]"
        }
      ],
      "stateMutability": "view",
      "type": "function"
    },
    {
      "inputs": [],
      "name": "getRemainingDuration",
      "outputs": [
        {
          "internalType": "uint256",
          "name": "",
          "type": "uint256"
        }
      ],
      "stateMutability": "view",
      "type": "function"
    },
    {
      "inputs": [],
      "name": "goal",
      "outputs": [
        {
          "internalType": "uint256",
          "name": "",
          "type": "uint256"
        }
      ],
      "stateMutability": "view",
      "type": "function"
    },
    {
      "inputs": [],
      "name": "owner",
      "outputs": [
        {
          "internalType": "address",
          "name": "",
          "type": "address"
        }
      ],
      "stateMutability": "view",
      "type": "function"
    },
    {
      "inputs": [],
      "name": "pledge",
      "outputs": [],
      "stateMutability": "payable",
      "type": "function"
    },
    {
      "inputs": [
        {
          "internalType": "uint256",
          "name": "_duration",
          "type": "uint256"
        }
      ],
      "name": "setDeadline",
      "outputs": [],
      "stateMutability": "nonpayable",
      "type": "function"
    },
    {
      "inputs": [
        {
          "internalType": "uint256",
          "name": "_goal",
          "type": "uint256"
        }
      ],
      "name": "setGoal",
      "outputs": [],
      "stateMutability": "nonpayable",
      "type": "function"
    },
    {
      "inputs": [
        {
          "internalType": "address",
          "name": "_newOwner",
          "type": "address"
        }
      ],
      "name": "setOwner",
      "outputs": [],
      "stateMutability": "nonpayable",
      "type": "function"
    },
    {
      "inputs": [],
      "name": "totalPledged",
      "outputs": [
        {
          "internalType": "uint256",
          "name": "",
          "type": "uint256"
        }
      ],
      "stateMutability": "view",
      "type": "function"
    }
  ],
  "bytecode": "0x608060405234801561001057600080fd5b50604051611957380380611957833981810160405281019061003291906100cd565b336000806101000a81548173ffffffffffffffffffffffffffffffffffffffff021916908373ffffffffffffffffffffffffffffffffffffffff160217905550816001819055508042610085919061013c565b6002819055505050610170565b600080fd5b6000819050919050565b6100aa81610097565b81146100b557600080fd5b50565b6000815190506100c7816100a1565b92915050565b600080604083850312156100e4576100e3610092565b5b60006100f2858286016100b8565b9250506020610103858286016100b8565b9150509250929050565b7f4e487b7100000000000000000000000000000000000000000000000000000000600052601160045260246000fd5b600061014782610097565b915061015283610097565b925082820190508082111561016a5761016961010d565b5b92915050565b6117d88061017f6000396000f3fe6080604052600436106100f35760003560e01c80634b29c4481161008a5780638da5cb5b116100595780638da5cb5b146102ea578063b5545a3c14610315578063ca0cdea81461032c578063dc1a970414610369576100f3565b80634b29c4481461027557806355468ba41461029e57806371aac7f9146102c957806388ffe867146102e0576100f3565b80632799a023116100c65780632799a023146101b757806329dcb0cf146101e25780632b2aee5d1461020d578063401938831461024a576100f3565b80630c611f24146100f857806313af4035146101285780631479197f14610151578063195199f61461018e575b600080fd5b34801561010457600080fd5b5061010d610394565b60405161011f96959493929190611110565b60405180910390f35b34801561013457600080fd5b5061014f600480360381019061014a91906111a2565b6103e2565b005b34801561015d57600080fd5b50610178600480360381019061017391906111a2565b61059c565b60405161018591906111cf565b60405180910390f35b34801561019a57600080fd5b506101b560048036038101906101b09190611216565b6105e5565b005b3480156101c357600080fd5b506101cc6106f6565b6040516101d991906111cf565b60405180910390f35b3480156101ee57600080fd5b506101f761070b565b60405161020491906111cf565b60405180910390f35b34801561021957600080fd5b50610234600480360381019061022f9190611216565b610711565b6040516102419190611243565b60405180910390f35b34801561025657600080fd5b5061025f610750565b60405161026c91906111cf565b60405180910390f35b34801561028157600080fd5b5061029c60048036038101906102979190611216565b610756565b005b3480156102aa57600080fd5b506102b3610825565b6040516102c091906111cf565b60405180910390f35b3480156102d557600080fd5b506102de61082b565b005b6102e8610a40565b005b3480156102f657600080fd5b506102ff610c74565b60405161030c9190611243565b60405180910390f35b34801561032157600080fd5b5061032a610c98565b005b34801561033857600080fd5b50610353600480360381019061034e91906111a2565b611010565b60405161036091906111cf565b60405180910390f35b34801561037557600080fd5b5061037e611028565b60405161038b919061131c565b60405180910390f35b60008060008060008060008054906101000a900473ffffffffffffffffffffffffffffffffffffffff1660015460025442600354600580549050955095509550955095509550909192939495565b60008054906101000a900473ffffffffffffffffffffffffffffffffffffffff1673ffffffffffffffffffffffffffffffffffffffff163373ffffffffffffffffffffffffffffffffffffffff1614610470576040517f08c379a0000000000000000000000000000000000000000000000000000000008152600401610467906113c1565b60405180910390fd5b600073ffffffffffffffffffffffffffffffffffffffff168173ffffffffffffffffffffffffffffffffffffffff16036104df576040517f08c379a00000000000000000000000000000000000000000000000000000000081526004016104d69061142d565b60405180910390fd5b8073ffffffffffffffffffffffffffffffffffffffff1660008054906101000a900473ffffffffffffffffffffffffffffffffffffffff1673ffffffffffffffffffffffffffffffffffffffff167f8be0079c531659141344cd1fd0a4f28419497f9722a3daafe3b4186f6b6457e060405160405180910390a3806000806101000a81548173ffffffffffffffffffffffffffffffffffffffff021916908373ffffffffffffffffffffffffffffffffffffffff16021790555050565b6000600460008373ffffffffffffffffffffffffffffffffffffffff1673ffffffffffffffffffffffffffffffffffffffff168152602001908152602001600020549050919050565b60008054906101000a900473ffffffffffffffffffffffffffffffffffffffff1673ffffffffffffffffffffffffffffffffffffffff163373ffffffffffffffffffffffffffffffffffffffff1614610673576040517f08c379a000000000000000000000000000000000000000000000000000000000815260040161066a906113c1565b60405180910390fd5b804261067f919061147c565b60028190555060008054906101000a900473ffffffffffffffffffffffffffffffffffffffff1673ffffffffffffffffffffffffffffffffffffffff167fe73c3297a0365808e5fc693e6fef0c07e56bfc3f7d1b96158cd62e76aa1036d7826040516106eb91906111cf565b60405180910390a250565b60004260025461070691906114b0565b905090565b60025481565b6005818154811061072157600080fd5b906000526020600020016000915054906101000a900473ffffffffffffffffffffffffffffffffffffffff1681565b60015481565b60008054906101000a900473ffffffffffffffffffffffffffffffffffffffff1673ffffffffffffffffffffffffffffffffffffffff163373ffffffffffffffffffffffffffffffffffffffff16146107e4576040517f08c379a00000000000000000000000000000000000000000000000000000000081526004016107db906113c1565b60405180910390fd5b806001819055507f98679ff9866c849680b692778dc87c2ae50edf50974ee07b54d1bc42be5c35f08160405161081a91906111cf565b60405180910390a150565b60035481565b600254421015610870576040517f08c379a000000000000000000000000000000000000000000000000000000000815260040161086790611530565b60405180910390fd5b60008054906101000a900473ffffffffffffffffffffffffffffffffffffffff1673ffffffffffffffffffffffffffffffffffffffff163373ffffffffffffffffffffffffffffffffffffffff16146108fe576040517f08c379a00000000000000000000000000000000000000000000000000000000081526004016108f5906113c1565b60405180910390fd5b600154600354106109ca5760008054906101000a900473ffffffffffffffffffffffffffffffffffffffff1673ffffffffffffffffffffffffffffffffffffffff166108fc6003549081150290604051600060405180830381858888f19350505050158015610971573d6000803e3d6000fd5b503373ffffffffffffffffffffffffffffffffffffffff167f26061f8ad8a572667e3950748981d27d251623db3666307cefad750eec59ca0760035460016040516109bd92919061156b565b60405180910390a2610a3e565b60008054906101000a900473ffffffffffffffffffffffffffffffffffffffff1673ffffffffffffffffffffffffffffffffffffffff167f26061f8ad8a572667e3950748981d27d251623db3666307cefad750eec59ca076003546000604051610a3592919061156b565b60405180910390a25b565b6002544210610a84576040517f08c379a0000000000000000000000000000000000000000000000000000000008152600401610a7b906115e0565b60405180910390fd5b60003411610ac7576040517f08c379a0000000000000000000000000000000000000000000000000000000008152600401610abe9061164c565b60405180910390fd5b6000600460003373ffffffffffffffffffffffffffffffffffffffff1673ffffffffffffffffffffffffffffffffffffffff1681526020019081526020016000205403610bb5576005339080600181540180825580915050600190039060005260206000200160009091909190916101000a81548173ffffffffffffffffffffffffffffffffffffffff021916908373ffffffffffffffffffffffffffffffffffffffff1602179055503373ffffffffffffffffffffffffffffffffffffffff167f072dafb6aabe3f02118bc607efbeaaa104d6b2009720c7b130f24ba418689c4b60405160405180910390a25b34600460003373ffffffffffffffffffffffffffffffffffffffff1673ffffffffffffffffffffffffffffffffffffffff1681526020019081526020016000206000828254610c04919061147c565b925050819055503460036000828254610c1d919061147c565b925050819055503373ffffffffffffffffffffffffffffffffffffffff167f8be1cd6b5b94a46676d2312706e389412016b3153fe3e45bea208b77d34caaef34604051610c6a91906111cf565b60405180910390a2565b60008054906101000a900473ffffffffffffffffffffffffffffffffffffffff1681565b6000600460003373ffffffffffffffffffffffffffffffffffffffff1673ffffffffffffffffffffffffffffffffffffffff16815260200190815260200160002054905060008111610d1f576040517f08c379a0000000000000000000000000000000000000000000000000000000008152600401610d16906116b8565b60405180910390fd5b3373ffffffffffffffffffffffffffffffffffffffff166108fc829081150290604051600060405180830381858888f19350505050610d93576040517f08c379a0000000000000000000000000000000000000000000000000000000008152600401610d8a90611724565b60405180910390fd5b6000600460003373ffffffffffffffffffffffffffffffffffffffff1673ffffffffffffffffffffffffffffffffffffffff168152602001908152602001600020819055508060036000828254610dea91906114b0565b9250508190555060005b600580549050811015610f77573373ffffffffffffffffffffffffffffffffffffffff1660058281548110610e2c57610e2b611744565b5b9060005260206000200160009054906101000a900473ffffffffffffffffffffffffffffffffffffffff1673ffffffffffffffffffffffffffffffffffffffff1603610f6a5760056001600580549050610e8691906114b0565b81548110610e9757610e96611744565b5b9060005260206000200160009054906101000a900473ffffffffffffffffffffffffffffffffffffffff1660058281548110610ed657610ed5611744565b5b9060005260206000200160006101000a81548173ffffffffffffffffffffffffffffffffffffffff021916908373ffffffffffffffffffffffffffffffffffffffff1602179055506005805480610f3057610f2f611773565b5b6001900381819060005260206000200160006101000a81549073ffffffffffffffffffffffffffffffffffffffff02191690559055610f77565b8080600101915050610df4565b503373ffffffffffffffffffffffffffffffffffffffff166108fc829081150290604051600060405180830381858888f19350505050158015610fbe573d6000803e3d6000fd5b503373ffffffffffffffffffffffffffffffffffffffff167f3367befd2b2f39615cd79917c2153263c4af1d3945ec003e5d5bfc13a8d858338260405161100591906111cf565b60405180910390a250565b60046020528060005260406000206000915090505481565b606060058054806020026020016040519081016040528092919081815260200182805480156110ac57602002820191906000526020600020905b8160009054906101000a900473ffffffffffffffffffffffffffffffffffffffff1673ffffffffffffffffffffffffffffffffffffffff1681526020019060010190808311611062575b5050505050905090565b600073ffffffffffffffffffffffffffffffffffffffff82169050919050565b60006110e1826110b6565b9050919050565b6110f1816110d6565b82525050565b6000819050919050565b61110a816110f7565b82525050565b600060c08201905061112560008301896110e8565b6111326020830188611101565b61113f6040830187611101565b61114c6060830186611101565b6111596080830185611101565b61116660a0830184611101565b979650505050505050565b600080fd5b61117f816110d6565b811461118a57600080fd5b50565b60008135905061119c81611176565b92915050565b6000602082840312156111b8576111b7611171565b5b60006111c68482850161118d565b91505092915050565b60006020820190506111e46000830184611101565b92915050565b6111f3816110f7565b81146111fe57600080fd5b50565b600081359050611210816111ea565b92915050565b60006020828403121561122c5761122b611171565b5b600061123a84828501611201565b91505092915050565b600060208201905061125860008301846110e8565b92915050565b600081519050919050565b600082825260208201905092915050565b6000819050602082019050919050565b611293816110d6565b82525050565b60006112a5838361128a565b60208301905092915050565b6000602082019050919050565b60006112c98261125e565b6112d38185611269565b93506112de8361127a565b8060005b8381101561130f5781516112f68882611299565b9750611301836112b1565b9250506001810190506112e2565b5085935050505092915050565b6000602082019050818103600083015261133681846112be565b905092915050565b600082825260208201905092915050565b7f4f6e6c79206f776e65722063616e20706572666f726d2074686973206163746960008201527f6f6e000000000000000000000000000000000000000000000000000000000000602082015250565b60006113ab60228361133e565b91506113b68261134f565b604082019050919050565b600060208201905081810360008301526113da8161139e565b9050919050565b7f496e76616c696420616464726573730000000000000000000000000000000000600082015250565b6000611417600f8361133e565b9150611422826113e1565b602082019050919050565b600060208201905081810360008301526114468161140a565b9050919050565b7f4e487b7100000000000000000000000000000000000000000000000000000000600052601160045260246000fd5b6000611487826110f7565b9150611492836110f7565b92508282019050808211156114aa576114a961144d565b5b92915050565b60006114bb826110f7565b91506114c6836110f7565b92508282039050818111156114de576114dd61144d565b5b92915050565b7f446561646c696e6520686173206e6f74206265656e2072656163686564000000600082015250565b600061151a601d8361133e565b9150611525826114e4565b602082019050919050565b600060208201905081810360008301526115498161150d565b9050919050565b60008115159050919050565b61156581611550565b82525050565b60006040820190506115806000830185611101565b61158d602083018461155c565b9392505050565b7f43616d706169676e2068617320656e6465640000000000000000000000000000600082015250565b60006115ca60128361133e565b91506115d582611594565b602082019050919050565b600060208201905081810360008301526115f9816115bd565b9050919050565b7f506c65646765206d7573742062652067726561746572207468616e207a65726f600082015250565b600061163660208361133e565b915061164182611600565b602082019050919050565b6000602082019050818103600083015261166581611629565b9050919050565b7f4e6f20646f6e6174696f6e20746f20726566756e640000000000000000000000600082015250565b60006116a260158361133e565b91506116ad8261166c565b602082019050919050565b600060208201905081810360008301526116d181611695565b9050919050565b7f526566756e64206661696c656400000000000000000000000000000000000000600082015250565b600061170e600d8361133e565b9150611719826116d8565b602082019050919050565b6000602082019050818103600083015261173d81611701565b9050919050565b7f4e487b7100000000000000000000000000000000000000000000000000000000600052603260045260246000fd5b7f4e487b7100000000000000000000000000000000000000000000000000000000600052603160045260246000fdfea264697066735822122026144893da7da685f231fbeb5a178a28d12debcdb8778f72bac0f7511eb921c364736f6c634300081c0033",
  "linkReferences": {},
  "deployedLinkReferences": {}
}